{
  "contractName": "Cert",
  "abi": [
    {
      "inputs": [],
      "payable": false,
      "stateMutability": "nonpayable",
      "type": "constructor"
    },
    {
      "anonymous": false,
      "inputs": [
        {
          "indexed": true,
          "internalType": "address",
          "name": "_addr",
          "type": "address"
        },
        {
          "indexed": false,
          "internalType": "uint256",
          "name": "adminIndex",
          "type": "uint256"
        }
      ],
      "name": "AdminAdded",
      "type": "event"
    },
    {
      "anonymous": false,
      "inputs": [
        {
          "indexed": false,
          "internalType": "uint256",
          "name": "_newLimit",
          "type": "uint256"
        }
      ],
      "name": "AdminLimitChanged",
      "type": "event"
    },
    {
      "anonymous": false,
      "inputs": [
        {
          "indexed": true,
          "internalType": "address",
          "name": "_addr",
          "type": "address"
        },
        {
          "indexed": false,
          "internalType": "uint256",
          "name": "adminIndex",
          "type": "uint256"
        }
      ],
      "name": "AdminRemoved",
      "type": "event"
    },
    {
      "anonymous": false,
      "inputs": [
        {
          "indexed": false,
          "internalType": "string",
          "name": "_email",
          "type": "string"
        },
        {
          "indexed": false,
          "internalType": "string",
          "name": "_link",
          "type": "string"
        },
        {
          "indexed": false,
          "internalType": "enum Cert.assignmentStatus",
          "name": "_status",
          "type": "uint8"
        },
        {
          "indexed": false,
          "internalType": "uint16",
          "name": "assignmentIndex",
          "type": "uint16"
        }
      ],
      "name": "AssignmentAdded",
      "type": "event"
    },
    {
      "anonymous": false,
      "inputs": [
        {
          "indexed": false,
          "internalType": "string",
          "name": "_email",
          "type": "string"
        },
        {
          "indexed": false,
          "internalType": "enum Cert.assignmentStatus",
          "name": "_status",
          "type": "uint8"
        },
        {
          "indexed": false,
          "internalType": "uint16",
          "name": "assignmentIndex",
          "type": "uint16"
        }
      ],
      "name": "AssignmentUpdated",
      "type": "event"
    },
    {
      "anonymous": false,
      "inputs": [
        {
          "indexed": false,
          "internalType": "address",
          "name": "_addr",
          "type": "address"
        },
        {
          "indexed": false,
          "internalType": "uint256",
          "name": "_value",
          "type": "uint256"
        }
      ],
      "name": "Donate",
      "type": "event"
    },
    {
      "anonymous": false,
      "inputs": [
        {
          "indexed": false,
          "internalType": "address",
          "name": "_addr",
          "type": "address"
        },
        {
          "indexed": false,
          "internalType": "uint256",
          "name": "_value",
          "type": "uint256"
        }
      ],
      "name": "Donatee",
      "type": "event"
    },
    {
      "anonymous": false,
      "inputs": [
        {
          "indexed": true,
          "internalType": "address",
          "name": "previousOwner",
          "type": "address"
        },
        {
          "indexed": true,
          "internalType": "address",
          "name": "newOwner",
          "type": "address"
        }
      ],
      "name": "OwnershipTransferred",
      "type": "event"
    },
    {
      "anonymous": false,
      "inputs": [
        {
          "indexed": false,
          "internalType": "string",
          "name": "_email",
          "type": "string"
        },
        {
          "indexed": false,
          "internalType": "bytes32",
          "name": "fName",
          "type": "bytes32"
        },
        {
          "indexed": false,
          "internalType": "bytes32",
          "name": "lName",
          "type": "bytes32"
        },
        {
          "indexed": false,
          "internalType": "bytes32",
          "name": "commd",
          "type": "bytes32"
        },
        {
          "indexed": false,
          "internalType": "enum Cert.grades",
          "name": "_grade",
          "type": "uint8"
        }
      ],
      "name": "StudentAdded",
      "type": "event"
    },
    {
      "anonymous": false,
      "inputs": [
        {
          "indexed": false,
          "internalType": "string",
          "name": "_email",
          "type": "string"
        },
        {
          "indexed": false,
          "internalType": "bytes32",
          "name": "nCommendation",
          "type": "bytes32"
        }
      ],
      "name": "StudentCommendationUpdated",
      "type": "event"
    },
    {
      "anonymous": false,
      "inputs": [
        {
          "indexed": false,
          "internalType": "string",
          "name": "_email",
          "type": "string"
        },
        {
          "indexed": false,
          "internalType": "string",
          "name": "_newEmail",
          "type": "string"
        }
      ],
      "name": "StudentEmailUpdated",
      "type": "event"
    },
    {
      "anonymous": false,
      "inputs": [
        {
          "indexed": false,
          "internalType": "string",
          "name": "_email",
          "type": "string"
        },
        {
          "indexed": false,
          "internalType": "enum Cert.grades",
          "name": "_newgrade",
          "type": "uint8"
        }
      ],
      "name": "StudentGradeUpdated",
      "type": "event"
    },
    {
      "anonymous": false,
      "inputs": [
        {
          "indexed": false,
          "internalType": "string",
          "name": "_email",
          "type": "string"
        },
        {
          "indexed": false,
          "internalType": "bytes32",
          "name": "nFirstName",
          "type": "bytes32"
        },
        {
          "indexed": false,
          "internalType": "bytes32",
          "name": "nLastName",
          "type": "bytes32"
        }
      ],
      "name": "StudentNameUpdated",
      "type": "event"
    },
    {
      "anonymous": false,
      "inputs": [
        {
          "indexed": false,
          "internalType": "string",
          "name": "_email",
          "type": "string"
        }
      ],
      "name": "StudentRemoved",
      "type": "event"
    },
    {
      "payable": true,
      "stateMutability": "payable",
      "type": "fallback"
    },
    {
      "constant": true,
      "inputs": [],
      "name": "adminIndex",
      "outputs": [
        {
          "internalType": "uint256",
          "name": "",
          "type": "uint256"
        }
      ],
      "payable": false,
      "stateMutability": "view",
      "type": "function"
    },
    {
      "constant": true,
      "inputs": [
        {
          "internalType": "address",
          "name": "",
          "type": "address"
        }
      ],
      "name": "admins",
      "outputs": [
        {
          "internalType": "bool",
          "name": "authorized",
          "type": "bool"
        },
        {
          "internalType": "uint256",
          "name": "id",
          "type": "uint256"
        }
      ],
      "payable": false,
      "stateMutability": "view",
      "type": "function"
    },
    {
      "constant": true,
      "inputs": [
        {
          "internalType": "uint256",
          "name": "",
          "type": "uint256"
        }
      ],
      "name": "adminsReverseMapping",
      "outputs": [
        {
          "internalType": "address",
          "name": "",
          "type": "address"
        }
      ],
      "payable": false,
      "stateMutability": "view",
      "type": "function"
    },
    {
      "constant": true,
      "inputs": [],
      "name": "isOwner",
      "outputs": [
        {
          "internalType": "bool",
          "name": "",
          "type": "bool"
        }
      ],
      "payable": false,
      "stateMutability": "view",
      "type": "function"
    },
    {
      "constant": true,
      "inputs": [],
      "name": "maxAdmins",
      "outputs": [
        {
          "internalType": "uint256",
          "name": "",
          "type": "uint256"
        }
      ],
      "payable": false,
      "stateMutability": "view",
      "type": "function"
    },
    {
      "constant": true,
      "inputs": [],
      "name": "owner",
      "outputs": [
        {
          "internalType": "address",
          "name": "",
          "type": "address"
        }
      ],
      "payable": false,
      "stateMutability": "view",
      "type": "function"
    },
    {
      "constant": true,
      "inputs": [],
      "name": "studentIndex",
      "outputs": [
        {
          "internalType": "uint256",
          "name": "",
          "type": "uint256"
        }
      ],
      "payable": false,
      "stateMutability": "view",
      "type": "function"
    },
    {
      "constant": true,
      "inputs": [],
      "name": "totalDonations",
      "outputs": [
        {
          "internalType": "uint256",
          "name": "",
          "type": "uint256"
        }
      ],
      "payable": false,
      "stateMutability": "view",
      "type": "function"
    },
    {
      "constant": false,
      "inputs": [
        {
          "internalType": "address",
          "name": "_addr",
          "type": "address"
        }
      ],
      "name": "addAdmin",
      "outputs": [],
      "payable": false,
      "stateMutability": "nonpayable",
      "type": "function"
    },
    {
      "constant": false,
      "inputs": [
        {
          "internalType": "address",
          "name": "_addr",
          "type": "address"
        }
      ],
      "name": "removeAdmin",
      "outputs": [],
      "payable": false,
      "stateMutability": "nonpayable",
      "type": "function"
    },
    {
      "constant": false,
      "inputs": [
        {
          "internalType": "uint256",
          "name": "_newLimit",
          "type": "uint256"
        }
      ],
      "name": "changeAdminLimit",
      "outputs": [],
      "payable": false,
      "stateMutability": "nonpayable",
      "type": "function"
    },
    {
      "constant": false,
      "inputs": [
        {
          "internalType": "address",
          "name": "_addr",
          "type": "address"
        }
      ],
      "name": "transferOwnership",
      "outputs": [],
      "payable": false,
      "stateMutability": "nonpayable",
      "type": "function"
    },
    {
      "constant": false,
      "inputs": [],
      "name": "renounceOwnership",
      "outputs": [],
      "payable": false,
      "stateMutability": "nonpayable",
      "type": "function"
    },
    {
      "constant": false,
      "inputs": [
        {
          "internalType": "string",
          "name": "_firstName",
          "type": "string"
        },
        {
          "internalType": "string",
          "name": "_lastName",
          "type": "string"
        },
        {
          "internalType": "string",
          "name": "_commendation",
          "type": "string"
        },
        {
          "internalType": "enum Cert.grades",
          "name": "_grade",
          "type": "uint8"
        },
        {
          "internalType": "string",
          "name": "_email",
          "type": "string"
        }
      ],
      "name": "addStudent",
      "outputs": [],
      "payable": false,
      "stateMutability": "nonpayable",
      "type": "function"
    },
    {
      "constant": true,
      "inputs": [
        {
          "internalType": "string",
          "name": "_email",
          "type": "string"
        }
      ],
      "name": "searchStudent",
      "outputs": [
        {
          "internalType": "string",
          "name": "firstName",
          "type": "string"
        },
        {
          "internalType": "string",
          "name": "lastName",
          "type": "string"
        },
        {
          "internalType": "string",
          "name": "commendation",
          "type": "string"
        },
        {
          "internalType": "enum Cert.grades",
          "name": "grade",
          "type": "uint8"
        },
        {
          "internalType": "uint16",
          "name": "assignmentIndex",
          "type": "uint16"
        },
        {
          "internalType": "bool",
          "name": "active",
          "type": "bool"
        }
      ],
      "payable": false,
      "stateMutability": "view",
      "type": "function"
    },
    {
      "constant": false,
      "inputs": [
        {
          "internalType": "string",
          "name": "_email",
          "type": "string"
        }
      ],
      "name": "removeStudent",
      "outputs": [],
      "payable": false,
      "stateMutability": "nonpayable",
      "type": "function"
    },
    {
      "constant": false,
      "inputs": [
        {
          "internalType": "string",
          "name": "_email",
          "type": "string"
        },
        {
          "internalType": "string",
          "name": "_newFirstName",
          "type": "string"
        },
        {
          "internalType": "string",
          "name": "_newLastName",
          "type": "string"
        }
      ],
      "name": "changeStudentName",
      "outputs": [],
      "payable": false,
      "stateMutability": "nonpayable",
      "type": "function"
    },
    {
      "constant": false,
      "inputs": [
        {
          "internalType": "string",
          "name": "_email",
          "type": "string"
        },
        {
          "internalType": "string",
          "name": "_newCommendation",
          "type": "string"
        }
      ],
      "name": "changeStudentCommendation",
      "outputs": [],
      "payable": false,
      "stateMutability": "nonpayable",
      "type": "function"
    },
    {
      "constant": false,
      "inputs": [
        {
          "internalType": "string",
          "name": "_email",
          "type": "string"
        },
        {
          "internalType": "enum Cert.grades",
          "name": "_newgrade",
          "type": "uint8"
        }
      ],
      "name": "changeStudentGrade",
      "outputs": [],
      "payable": false,
      "stateMutability": "nonpayable",
      "type": "function"
    },
    {
      "constant": false,
      "inputs": [
        {
          "internalType": "string",
          "name": "_email",
          "type": "string"
        },
        {
          "internalType": "string",
          "name": "_newEmail",
          "type": "string"
        }
      ],
      "name": "changeStudentEmail",
      "outputs": [],
      "payable": false,
      "stateMutability": "nonpayable",
      "type": "function"
    },
    {
      "constant": false,
      "inputs": [
        {
          "internalType": "string",
          "name": "_email",
          "type": "string"
        },
        {
          "internalType": "string",
          "name": "_link",
          "type": "string"
        },
        {
          "internalType": "enum Cert.assignmentStatus",
          "name": "_status",
          "type": "uint8"
        },
        {
          "internalType": "bool",
          "name": "isFinalProject",
          "type": "bool"
        }
      ],
      "name": "addAssignment",
      "outputs": [],
      "payable": false,
      "stateMutability": "nonpayable",
      "type": "function"
    },
    {
      "constant": false,
      "inputs": [
        {
          "internalType": "string",
          "name": "_email",
          "type": "string"
        },
        {
          "internalType": "enum Cert.assignmentStatus",
          "name": "_status",
          "type": "uint8"
        },
        {
          "internalType": "bool",
          "name": "isFinalProject",
          "type": "bool"
        }
      ],
      "name": "updateAssignmentStatus",
      "outputs": [],
      "payable": false,
      "stateMutability": "nonpayable",
      "type": "function"
    },
    {
      "constant": true,
      "inputs": [
        {
          "internalType": "string",
          "name": "_email",
          "type": "string"
        },
        {
          "internalType": "uint16",
          "name": "_assignmentIndex",
          "type": "uint16"
        }
      ],
      "name": "getAssignmentInfo",
      "outputs": [
        {
          "internalType": "string",
          "name": "link",
          "type": "string"
        },
        {
          "internalType": "enum Cert.assignmentStatus",
          "name": "status",
          "type": "uint8"
        }
      ],
      "payable": false,
      "stateMutability": "view",
      "type": "function"
    },
    {
      "constant": false,
      "inputs": [],
      "name": "donateEth",
      "outputs": [],
      "payable": true,
      "stateMutability": "payable",
      "type": "function"
    },
    {
      "constant": false,
      "inputs": [],
      "name": "withdrawEth",
      "outputs": [],
      "payable": true,
      "stateMutability": "payable",
      "type": "function"
    }
  ],
  "bytecode": "0x608060405260006001556000600255600060035560006004553480156200002557600080fd5b50336000806101000a81548173ffffffffffffffffffffffffffffffffffffffff021916908373ffffffffffffffffffffffffffffffffffffffff1602179055506000809054906101000a900473ffffffffffffffffffffffffffffffffffffffff1673ffffffffffffffffffffffffffffffffffffffff16600073ffffffffffffffffffffffffffffffffffffffff167f8be0079c531659141344cd1fd0a4f28419497f9722a3daafe3b4186f6b6457e060405160405180910390a36002600181905550620000fb336200010160201b60201c565b6200029a565b60001515600560008373ffffffffffffffffffffffffffffffffffffffff1673ffffffffffffffffffffffffffffffffffffffff16815260200190815260200160002060000160009054906101000a900460ff16151514156200027a576001600560008373ffffffffffffffffffffffffffffffffffffffff1673ffffffffffffffffffffffffffffffffffffffff16815260200190815260200160002060000160006101000a81548160ff021916908315150217905550600254600560008373ffffffffffffffffffffffffffffffffffffffff1673ffffffffffffffffffffffffffffffffffffffff168152602001908152602001600020600101819055508060066000600254815260200190815260200160002060006101000a81548173ffffffffffffffffffffffffffffffffffffffff021916908373ffffffffffffffffffffffffffffffffffffffff1602179055506200027360016002546200027d60201b62004aa61790919060201c565b6002819055505b50565b6000808284019050838110156200029057fe5b8091505092915050565b614e5880620002aa6000396000f3fe6080604052600436106101665760003560e01c80638da5cb5b116100d1578063aadd1b031161008a578063edd6cfb111610064578063edd6cfb114610ce5578063f27de6db14610d6b578063f2fde38b14610dfe578063f30319c314610e4f57610166565b8063aadd1b0314610bd5578063dc63c3e914610bdf578063de2ed89314610cba57610166565b80638da5cb5b1461079d5780638f32d59b146107f4578063916e0b7d1461082357806394dd2e50146109175780639bada32614610aa9578063a0ef91df14610bcb57610166565b8063429b62e511610123578063429b62e5146104ef578063704802751461055f578063715018a6146105b057806376ae8fe4146105c75780637a8ec57a146106f75780638702f2ac1461077257610166565b80630334982e14610168578063151b151c1461020757806315436f6814610232578063170edcd6146104385780631785f53c1461047357806334839ea9146104c4575b005b34801561017457600080fd5b506102056004803603606081101561018b57600080fd5b81019080803590602001906401000000008111156101a857600080fd5b8201836020820111156101ba57600080fd5b803590602001918460018302840111640100000000831117156101dc57600080fd5b9091929391929390803560ff169060200190929190803515159060200190929190505050610f2a565b005b34801561021357600080fd5b5061021c6113f3565b6040518082815260200191505060405180910390f35b34801561023e57600080fd5b506102b66004803603602081101561025557600080fd5b810190808035906020019064010000000081111561027257600080fd5b82018360208201111561028457600080fd5b803590602001918460018302840111640100000000831117156102a657600080fd5b90919293919293905050506113f9565b604051808060200180602001806020018760048111156102d257fe5b60ff1681526020018661ffff1661ffff1681526020018515151515815260200184810384528a818151815260200191508051906020019080838360005b8381101561032a57808201518184015260208101905061030f565b50505050905090810190601f1680156103575780820380516001836020036101000a031916815260200191505b50848103835289818151815260200191508051906020019080838360005b83811015610390578082015181840152602081019050610375565b50505050905090810190601f1680156103bd5780820380516001836020036101000a031916815260200191505b50848103825288818151815260200191508051906020019080838360005b838110156103f65780820151818401526020810190506103db565b50505050905090810190601f1680156104235780820380516001836020036101000a031916815260200191505b50995050505050505050505060405180910390f35b34801561044457600080fd5b506104716004803603602081101561045b57600080fd5b81019080803590602001909291905050506115cd565b005b34801561047f57600080fd5b506104c26004803603602081101561049657600080fd5b81019080803573ffffffffffffffffffffffffffffffffffffffff169060200190929190505050611629565b005b3480156104d057600080fd5b506104d9611876565b6040518082815260200191505060405180910390f35b3480156104fb57600080fd5b5061053e6004803603602081101561051257600080fd5b81019080803573ffffffffffffffffffffffffffffffffffffffff16906020019092919050505061187c565b60405180831515151581526020018281526020019250505060405180910390f35b34801561056b57600080fd5b506105ae6004803603602081101561058257600080fd5b81019080803573ffffffffffffffffffffffffffffffffffffffff1690602001909291905050506118ad565b005b3480156105bc57600080fd5b506105c56119fc565b005b3480156105d357600080fd5b506106f5600480360360608110156105ea57600080fd5b810190808035906020019064010000000081111561060757600080fd5b82018360208201111561061957600080fd5b8035906020019184600183028401116401000000008311171561063b57600080fd5b90919293919293908035906020019064010000000081111561065c57600080fd5b82018360208201111561066e57600080fd5b8035906020019184600183028401116401000000008311171561069057600080fd5b9091929391929390803590602001906401000000008111156106b157600080fd5b8201836020820111156106c357600080fd5b803590602001918460018302840111640100000000831117156106e557600080fd5b9091929391929390505050611a0f565b005b34801561070357600080fd5b506107306004803603602081101561071a57600080fd5b8101908080359060200190929190505050611edf565b604051808273ffffffffffffffffffffffffffffffffffffffff1673ffffffffffffffffffffffffffffffffffffffff16815260200191505060405180910390f35b34801561077e57600080fd5b50610787611f12565b6040518082815260200191505060405180910390f35b3480156107a957600080fd5b506107b2611f18565b604051808273ffffffffffffffffffffffffffffffffffffffff1673ffffffffffffffffffffffffffffffffffffffff16815260200191505060405180910390f35b34801561080057600080fd5b50610809611f41565b604051808215151515815260200191505060405180910390f35b34801561082f57600080fd5b506109156004803603608081101561084657600080fd5b810190808035906020019064010000000081111561086357600080fd5b82018360208201111561087557600080fd5b8035906020019184600183028401116401000000008311171561089757600080fd5b9091929391929390803590602001906401000000008111156108b857600080fd5b8201836020820111156108ca57600080fd5b803590602001918460018302840111640100000000831117156108ec57600080fd5b9091929391929390803560ff169060200190929190803515159060200190929190505050611f98565b005b34801561092357600080fd5b50610aa7600480360360a081101561093a57600080fd5b810190808035906020019064010000000081111561095757600080fd5b82018360208201111561096957600080fd5b8035906020019184600183028401116401000000008311171561098b57600080fd5b9091929391929390803590602001906401000000008111156109ac57600080fd5b8201836020820111156109be57600080fd5b803590602001918460018302840111640100000000831117156109e057600080fd5b909192939192939080359060200190640100000000811115610a0157600080fd5b820183602082011115610a1357600080fd5b80359060200191846001830284011164010000000083111715610a3557600080fd5b9091929391929390803560ff16906020019092919080359060200190640100000000811115610a6357600080fd5b820183602082011115610a7557600080fd5b80359060200191846001830284011164010000000083111715610a9757600080fd5b9091929391929390505050612520565b005b348015610ab557600080fd5b50610b3b60048036036040811015610acc57600080fd5b8101908080359060200190640100000000811115610ae957600080fd5b820183602082011115610afb57600080fd5b80359060200191846001830284011164010000000083111715610b1d57600080fd5b9091929391929390803561ffff169060200190929190505050612b48565b6040518080602001836003811115610b4f57fe5b60ff168152602001828103825284818151815260200191508051906020019080838360005b83811015610b8f578082015181840152602081019050610b74565b50505050905090810190601f168015610bbc5780820380516001836020036101000a031916815260200191505b50935050505060405180910390f35b610bd3612ffd565b005b610bdd613155565b005b348015610beb57600080fd5b50610cb860048036036040811015610c0257600080fd5b8101908080359060200190640100000000811115610c1f57600080fd5b820183602082011115610c3157600080fd5b80359060200191846001830284011164010000000083111715610c5357600080fd5b909192939192939080359060200190640100000000811115610c7457600080fd5b820183602082011115610c8657600080fd5b80359060200191846001830284011164010000000083111715610ca857600080fd5b90919293919293905050506131f1565b005b348015610cc657600080fd5b50610ccf613608565b6040518082815260200191505060405180910390f35b348015610cf157600080fd5b50610d6960048036036020811015610d0857600080fd5b8101908080359060200190640100000000811115610d2557600080fd5b820183602082011115610d3757600080fd5b80359060200191846001830284011164010000000083111715610d5957600080fd5b909192939192939050505061360e565b005b348015610d7757600080fd5b50610dfc60048036036040811015610d8e57600080fd5b8101908080359060200190640100000000811115610dab57600080fd5b820183602082011115610dbd57600080fd5b80359060200191846001830284011164010000000083111715610ddf57600080fd5b9091929391929390803560ff16906020019092919050505061399a565b005b348015610e0a57600080fd5b50610e4d60048036036020811015610e2157600080fd5b81019080803573ffffffffffffffffffffffffffffffffffffffff169060200190929190505050613da3565b005b348015610e5b57600080fd5b50610f2860048036036040811015610e7257600080fd5b8101908080359060200190640100000000811115610e8f57600080fd5b820183602082011115610ea157600080fd5b80359060200191846001830284011164010000000083111715610ec357600080fd5b909192939192939080359060200190640100000000811115610ee457600080fd5b820183602082011115610ef657600080fd5b80359060200191846001830284011164010000000083111715610f1857600080fd5b9091929391929390505050613e3b565b005b60011515600560003373ffffffffffffffffffffffffffffffffffffffff1673ffffffffffffffffffffffffffffffffffffffff16815260200190815260200160002060000160009054906101000a900460ff16151514610fd6576040517f08c379a000000000000000000000000000000000000000000000000000000000815260040180806020018281038252602c815260200180614df8602c913960400191505060405180910390fd5b83838080601f016020809104026020016040519081016040528093929190818152602001838380828437600081840152601f19601f82011690508083019250505050505050806040516020018082805190602001908083835b60208310611052578051825260208201915060208101905060208303925061102f565b6001836020036101000a03801982511681845116808217855250505050505090500191505060405160208183030381529060405280519060200120600760006008846040518082805190602001908083835b602083106110c757805182526020820191506020810190506020830392506110a4565b6001836020036101000a0380198251168184511680821785525050505050509050019150509081526020016040518091039020548152602001908152602001600020600401604051602001808280546001816001161561010002031660029004801561116a5780601f1061114857610100808354040283529182019161116a565b820191906000526020600020905b815481529060010190602001808311611156575b505091505060405160208183030381529060405280519060200120146111f8576040517f08c379a000000000000000000000000000000000000000000000000000000000815260040180806020018281038252600f8152602001807f656d61696c206e6f7420666f756e64000000000000000000000000000000000081525060200191505060405180910390fd5b60016007600060088888604051808383808284378083019250505092505050908152602001604051809103902054815260200190815260200160002060030160036101000a81548160ff021916908315150217905561125657600080fd5b600061129b600760006008898960405180838380828437808301925050509250505090815260200160405180910390205481526020019081526020016000208461426d565b9050836007600060088989604051808383808284378083019250505092505050908152602001604051809103902054815260200190815260200160002060050160006007600060088b8b604051808383808284378083019250505092505050908152602001604051809103902054815260200190815260200160002060030160019054906101000a900461ffff1661ffff1661ffff16815260200190815260200160002060010160006101000a81548160ff0219169083600381111561135d57fe5b02179055507ffe5c758159ba89815da51c135047816cabe749c00319c6d5c065719e3b99df7786868684604051808060200184600381111561139b57fe5b60ff1681526020018361ffff1661ffff1681526020018281038252868682818152602001925080828437600081840152601f19601f8201169050808301925050509550505050505060405180910390a1505050505050565b60035481565b606080606060008060006114496007600060088b8b6040518083838082843780830192505050925050509081526020016040518091039020548152602001908152602001600020600001546142fc565b61148f6007600060088c8c6040518083838082843780830192505050925050509081526020016040518091039020548152602001908152602001600020600101546142fc565b6114d56007600060088d8d6040518083838082843780830192505050925050509081526020016040518091039020548152602001908152602001600020600201546142fc565b6007600060088d8d604051808383808284378083019250505092505050908152602001604051809103902054815260200190815260200160002060030160009054906101000a900460ff166007600060088e8e604051808383808284378083019250505092505050908152602001604051809103902054815260200190815260200160002060030160019054906101000a900461ffff166007600060088f8f604051808383808284378083019250505092505050908152602001604051809103902054815260200190815260200160002060030160039054906101000a900460ff169550955095509550955095509295509295509295565b600181101580156115df575060025481115b6115e857600080fd5b806001819055507f212055f063d32bdb436074d026740d08858784553298d7651fa97fa6a3ea4297816040518082815260200191505060405180910390a150565b611631611f41565b6116a3576040517f08c379a00000000000000000000000000000000000000000000000000000000081526004018080602001828103825260028152602001807f6c6c00000000000000000000000000000000000000000000000000000000000081525060200191505060405180910390fd5b806001600560008373ffffffffffffffffffffffffffffffffffffffff1673ffffffffffffffffffffffffffffffffffffffff16815260200190815260200160002060000160006101000a81548160ff0219169083151502179055611770576040517f08c379a00000000000000000000000000000000000000000000000000000000081526004018080602001828103825260138152602001807f4f6e6c792061646d696e7320616c6c6f7765640000000000000000000000000081525060200191505060405180910390fd5b611778611f18565b73ffffffffffffffffffffffffffffffffffffffff168173ffffffffffffffffffffffffffffffffffffffff161415611819576040517f08c379a00000000000000000000000000000000000000000000000000000000081526004018080602001828103825260148152602001807f4f6e6c79206e6f6e2d6f776e65722061646d696e00000000000000000000000081525060200191505060405180910390fd5b6118228261448f565b8173ffffffffffffffffffffffffffffffffffffffff167fa0726c73cf6ad18ddb855ba65d1ddd4d7fd37d320f4e52f6b154c13d386f5fd96002546040518082815260200191505060405180910390a25050565b60015481565b60056020528060005260406000206000915090508060000160009054906101000a900460ff16908060010154905082565b6118b5611f41565b611927576040517f08c379a00000000000000000000000000000000000000000000000000000000081526004018080602001828103825260028152602001807f6c6c00000000000000000000000000000000000000000000000000000000000081525060200191505060405180910390fd5b600154600254106119a0576040517f08c379a00000000000000000000000000000000000000000000000000000000081526004018080602001828103825260128152602001807f61646d696e73206d61782072656163686564000000000000000000000000000081525060200191505060405180910390fd5b6119a9816147c7565b8073ffffffffffffffffffffffffffffffffffffffff167f723c2b747529ca7f5eb53a74808f4a8b9bf264f0fc450fd904900151da74548a6002546040518082815260200191505060405180910390a250565b611a053361448f565b611a0d61493b565b565b60011515600560003373ffffffffffffffffffffffffffffffffffffffff1673ffffffffffffffffffffffffffffffffffffffff16815260200190815260200160002060000160009054906101000a900460ff16151514611abb576040517f08c379a000000000000000000000000000000000000000000000000000000000815260040180806020018281038252602c815260200180614df8602c913960400191505060405180910390fd5b85858080601f016020809104026020016040519081016040528093929190818152602001838380828437600081840152601f19601f82011690508083019250505050505050806040516020018082805190602001908083835b60208310611b375780518252602082019150602081019050602083039250611b14565b6001836020036101000a03801982511681845116808217855250505050505090500191505060405160208183030381529060405280519060200120600760006008846040518082805190602001908083835b60208310611bac5780518252602082019150602081019050602083039250611b89565b6001836020036101000a03801982511681845116808217855250505050505090500191505090815260200160405180910390205481526020019081526020016000206004016040516020018082805460018160011615610100020316600290048015611c4f5780601f10611c2d576101008083540402835291820191611c4f565b820191906000526020600020905b815481529060010190602001808311611c3b575b50509150506040516020818303038152906040528051906020012014611cdd576040517f08c379a000000000000000000000000000000000000000000000000000000000815260040180806020018281038252600f8152602001807f656d61696c206e6f7420666f756e64000000000000000000000000000000000081525060200191505060405180910390fd5b60016007600060088a8a604051808383808284378083019250505092505050908152602001604051809103902054815260200190815260200160002060030160036101000a81548160ff0219169083151502179055611d3b57600080fd5b6000611d8a86868080601f016020809104026020016040519081016040528093929190818152602001838380828437600081840152601f19601f82011690508083019250505050505050614a74565b90506000611ddb85858080601f016020809104026020016040519081016040528093929190818152602001838380828437600081840152601f19601f82011690508083019250505050505050614a74565b9050816007600060088c8c604051808383808284378083019250505092505050908152602001604051809103902054815260200190815260200160002060000181905550806007600060088c8c6040518083838082843780830192505050925050509081526020016040518091039020548152602001908152602001600020600101819055507fa619a98d51afdd43275f5f41dbbbbc6634a6ce2c93ee920b48ac1e7983a160f28989848460405180806020018481526020018381526020018281038252868682818152602001925080828437600081840152601f19601f8201169050808301925050509550505050505060405180910390a1505050505050505050565b60066020528060005260406000206000915054906101000a900473ffffffffffffffffffffffffffffffffffffffff1681565b60025481565b60008060009054906101000a900473ffffffffffffffffffffffffffffffffffffffff16905090565b60008060009054906101000a900473ffffffffffffffffffffffffffffffffffffffff1673ffffffffffffffffffffffffffffffffffffffff163373ffffffffffffffffffffffffffffffffffffffff1614905090565b60011515600560003373ffffffffffffffffffffffffffffffffffffffff1673ffffffffffffffffffffffffffffffffffffffff16815260200190815260200160002060000160009054906101000a900460ff16151514612044576040517f08c379a000000000000000000000000000000000000000000000000000000000815260040180806020018281038252602c815260200180614df8602c913960400191505060405180910390fd5b85858080601f016020809104026020016040519081016040528093929190818152602001838380828437600081840152601f19601f82011690508083019250505050505050806040516020018082805190602001908083835b602083106120c0578051825260208201915060208101905060208303925061209d565b6001836020036101000a03801982511681845116808217855250505050505090500191505060405160208183030381529060405280519060200120600760006008846040518082805190602001908083835b602083106121355780518252602082019150602081019050602083039250612112565b6001836020036101000a038019825116818451168082178552505050505050905001915050908152602001604051809103902054815260200190815260200160002060040160405160200180828054600181600116156101000203166002900480156121d85780601f106121b65761010080835404028352918201916121d8565b820191906000526020600020905b8154815290600101906020018083116121c4575b50509150506040516020818303038152906040528051906020012014612266576040517f08c379a000000000000000000000000000000000000000000000000000000000815260040180806020018281038252600f8152602001807f656d61696c206e6f7420666f756e64000000000000000000000000000000000081525060200191505060405180910390fd5b60016007600060088a8a604051808383808284378083019250505092505050908152602001604051809103902054815260200190815260200160002060030160036101000a81548160ff02191690831515021790556122c457600080fd5b60006123096007600060088b8b60405180838380828437808301925050509250505090815260200160405180910390205481526020019081526020016000208461426d565b9050604051806040016040528087878080601f016020809104026020016040519081016040528093929190818152602001838380828437600081840152601f19601f82011690508083019250505050505050815260200185600381111561236c57fe5b8152506007600060088b8b604051808383808284378083019250505092505050908152602001604051809103902054815260200190815260200160002060050160006007600060088d8d604051808383808284378083019250505092505050908152602001604051809103902054815260200190815260200160002060030160019054906101000a900461ffff1661ffff1661ffff168152602001908152602001600020600082015181600001908051906020019061242c929190614c7b565b5060208201518160010160006101000a81548160ff0219169083600381111561245157fe5b02179055509050507f3288fc53eb1edec731cf67ba3821396b62c0283ffacb2610481cd3fb43f86aeb88888888888660405180806020018060200185600381111561249857fe5b60ff1681526020018461ffff1661ffff1681526020018381038352898982818152602001925080828437600081840152601f19601f8201169050808301925050508381038252878782818152602001925080828437600081840152601f19601f8201169050808301925050509850505050505050505060405180910390a15050505050505050565b60011515600560003373ffffffffffffffffffffffffffffffffffffffff1673ffffffffffffffffffffffffffffffffffffffff16815260200190815260200160002060000160009054906101000a900460ff161515146125cc576040517f08c379a000000000000000000000000000000000000000000000000000000000815260040180806020018281038252602c815260200180614df8602c913960400191505060405180910390fd5b81818080601f016020809104026020016040519081016040528093929190818152602001838380828437600081840152601f19601f82011690508083019250505050505050806040516020018082805190602001908083835b602083106126485780518252602082019150602081019050602083039250612625565b6001836020036101000a03801982511681845116808217855250505050505090500191505060405160208183030381529060405280519060200120600760006008846040518082805190602001908083835b602083106126bd578051825260208201915060208101905060208303925061269a565b6001836020036101000a038019825116818451168082178552505050505050905001915050908152602001604051809103902054815260200190815260200160002060040160405160200180828054600181600116156101000203166002900480156127605780601f1061273e576101008083540402835291820191612760565b820191906000526020600020905b81548152906001019060200180831161274c575b50509150506040516020818303038152906040528051906020012014156127ef576040517f08c379a00000000000000000000000000000000000000000000000000000000081526004018080602001828103825260138152602001807f656d61696c20616c72656164792065786973740000000000000000000000000081525060200191505060405180910390fd5b600061283e8b8b8080601f016020809104026020016040519081016040528093929190818152602001838380828437600081840152601f19601f82011690508083019250505050505050614a74565b9050600061288f8a8a8080601f016020809104026020016040519081016040528093929190818152602001838380828437600081840152601f19601f82011690508083019250505050505050614a74565b905060006128e089898080601f016020809104026020016040519081016040528093929190818152602001838380828437600081840152601f19601f82011690508083019250505050505050614a74565b90506128ea614cfb565b6000816080019061ffff16908161ffff1681525050838160000181815250508281602001818152505081816040018181525050878160600190600481111561292e57fe5b9081600481111561293b57fe5b8152505086868080601f016020809104026020016040519081016040528093929190818152602001838380828437600081840152601f19601f820116905080830192505050505050508160c0018190525060018160a00190151590811515815250508060076000600354815260200190815260200160002060008201518160000155602082015181600101556040820151816002015560608201518160030160006101000a81548160ff021916908360048111156129f557fe5b021790555060808201518160030160016101000a81548161ffff021916908361ffff16021790555060a08201518160030160036101000a81548160ff02191690831515021790555060c0820151816004019080519060200190612a59929190614c7b565b5090505060035460088888604051808383808284378083019250505092505050908152602001604051809103902081905550612aa16001600354614aa690919063ffffffff16565b6003819055507f32d5b6c08ec29a5181d1963863d515c8e55d50cefb169a5dfca8d4bf991abd3087878686868d6040518080602001868152602001858152602001848152602001836004811115612af457fe5b60ff1681526020018281038252888882818152602001925080828437600081840152601f19601f82011690508083019250505097505050505050505060405180910390a15050505050505050505050505050565b6060600084848080601f016020809104026020016040519081016040528093929190818152602001838380828437600081840152601f19601f82011690508083019250505050505050806040516020018082805190602001908083835b60208310612bc85780518252602082019150602081019050602083039250612ba5565b6001836020036101000a03801982511681845116808217855250505050505090500191505060405160208183030381529060405280519060200120600760006008846040518082805190602001908083835b60208310612c3d5780518252602082019150602081019050602083039250612c1a565b6001836020036101000a03801982511681845116808217855250505050505090500191505090815260200160405180910390205481526020019081526020016000206004016040516020018082805460018160011615610100020316600290048015612ce05780601f10612cbe576101008083540402835291820191612ce0565b820191906000526020600020905b815481529060010190602001808311612ccc575b50509150506040516020818303038152906040528051906020012014612d6e576040517f08c379a000000000000000000000000000000000000000000000000000000000815260040180806020018281038252600f8152602001807f656d61696c206e6f7420666f756e64000000000000000000000000000000000081525060200191505060405180910390fd5b60006007600060088989604051808383808284378083019250505092505050908152602001604051809103902054815260200190815260200160002060030160019054906101000a900461ffff1661ffff161015612dcb57600080fd5b6007600060088888604051808383808284378083019250505092505050908152602001604051809103902054815260200190815260200160002060030160019054906101000a900461ffff1661ffff168461ffff161115612e94576040517f08c379a00000000000000000000000000000000000000000000000000000000081526004018080602001828103825260208152602001807f61737369676e6d656e74496e6465782061626f76652063757272656e7420496481525060200191505060405180910390fd5b6007600060088888604051808383808284378083019250505092505050908152602001604051809103902054815260200190815260200160002060050160008561ffff1661ffff1681526020019081526020016000206000016007600060088989604051808383808284378083019250505092505050908152602001604051809103902054815260200190815260200160002060050160008661ffff1661ffff16815260200190815260200160002060010160009054906101000a900460ff16818054600181600116156101000203166002900480601f016020809104026020016040519081016040528092919081815260200182805460018160011615610100020316600290048015612fe95780601f10612fbe57610100808354040283529160200191612fe9565b820191906000526020600020905b815481529060010190602001808311612fcc57829003601f168201915b505050505091509250925050935093915050565b613005611f41565b613077576040517f08c379a00000000000000000000000000000000000000000000000000000000081526004018080602001828103825260028152602001807f6c6c00000000000000000000000000000000000000000000000000000000000081525060200191505060405180910390fd5b6000613081611f18565b905060003073ffffffffffffffffffffffffffffffffffffffff163190508173ffffffffffffffffffffffffffffffffffffffff166108fc829081150290604051600060405180830381858888f193505050501580156130e5573d6000803e3d6000fd5b507f9f484a8dece49988a19e5c4f4402b21ff99defd7349ad30e439b790d0043902f3382604051808373ffffffffffffffffffffffffffffffffffffffff1673ffffffffffffffffffffffffffffffffffffffff1681526020018281526020019250505060405180910390a15050565b6611c37937e0800034101561316957600080fd5b61317e34600454614aa690919063ffffffff16565b6004819055507f0553260a2e46b0577270d8992db02d30856ca880144c72d6e9503760946aef133034604051808373ffffffffffffffffffffffffffffffffffffffff1673ffffffffffffffffffffffffffffffffffffffff1681526020018281526020019250505060405180910390a1565b60011515600560003373ffffffffffffffffffffffffffffffffffffffff1673ffffffffffffffffffffffffffffffffffffffff16815260200190815260200160002060000160009054906101000a900460ff1615151461329d576040517f08c379a000000000000000000000000000000000000000000000000000000000815260040180806020018281038252602c815260200180614df8602c913960400191505060405180910390fd5b83838080601f016020809104026020016040519081016040528093929190818152602001838380828437600081840152601f19601f82011690508083019250505050505050806040516020018082805190602001908083835b6020831061331957805182526020820191506020810190506020830392506132f6565b6001836020036101000a03801982511681845116808217855250505050505090500191505060405160208183030381529060405280519060200120600760006008846040518082805190602001908083835b6020831061338e578051825260208201915060208101905060208303925061336b565b6001836020036101000a038019825116818451168082178552505050505050905001915050908152602001604051809103902054815260200190815260200160002060040160405160200180828054600181600116156101000203166002900480156134315780601f1061340f576101008083540402835291820191613431565b820191906000526020600020905b81548152906001019060200180831161341d575b505091505060405160208183030381529060405280519060200120146134bf576040517f08c379a000000000000000000000000000000000000000000000000000000000815260040180806020018281038252600f8152602001807f656d61696c206e6f7420666f756e64000000000000000000000000000000000081525060200191505060405180910390fd5b60016007600060088888604051808383808284378083019250505092505050908152602001604051809103902054815260200190815260200160002060030160036101000a81548160ff021916908315150217905561351d57600080fd5b8282600760006008898960405180838380828437808301925050509250505090815260200160405180910390205481526020019081526020016000206004019190613569929190614d52565b507f17df9833ac28525114e09d17bcfed2f9946d564bb1be9676eeb6e9e1b431db64858585856040518080602001806020018381038352878782818152602001925080828437600081840152601f19601f8201169050808301925050508381038252858582818152602001925080828437600081840152601f19601f820116905080830192505050965050505050505060405180910390a15050505050565b60045481565b60011515600560003373ffffffffffffffffffffffffffffffffffffffff1673ffffffffffffffffffffffffffffffffffffffff16815260200190815260200160002060000160009054906101000a900460ff161515146136ba576040517f08c379a000000000000000000000000000000000000000000000000000000000815260040180806020018281038252602c815260200180614df8602c913960400191505060405180910390fd5b81818080601f016020809104026020016040519081016040528093929190818152602001838380828437600081840152601f19601f82011690508083019250505050505050806040516020018082805190602001908083835b602083106137365780518252602082019150602081019050602083039250613713565b6001836020036101000a03801982511681845116808217855250505050505090500191505060405160208183030381529060405280519060200120600760006008846040518082805190602001908083835b602083106137ab5780518252602082019150602081019050602083039250613788565b6001836020036101000a0380198251168184511680821785525050505050509050019150509081526020016040518091039020548152602001908152602001600020600401604051602001808280546001816001161561010002031660029004801561384e5780601f1061382c57610100808354040283529182019161384e565b820191906000526020600020905b81548152906001019060200180831161383a575b505091505060405160208183030381529060405280519060200120146138dc576040517f08c379a000000000000000000000000000000000000000000000000000000000815260040180806020018281038252600f8152602001807f656d61696c206e6f7420666f756e64000000000000000000000000000000000081525060200191505060405180910390fd5b60006007600060088686604051808383808284378083019250505092505050908152602001604051809103902054815260200190815260200160002060030160036101000a81548160ff0219169083151502179055507f38423ea25c06d2143785d918924e8169e3b337f6a91bd30ff94fdcb296a79c5b838360405180806020018281038252848482818152602001925080828437600081840152601f19601f820116905080830192505050935050505060405180910390a1505050565b60011515600560003373ffffffffffffffffffffffffffffffffffffffff1673ffffffffffffffffffffffffffffffffffffffff16815260200190815260200160002060000160009054906101000a900460ff16151514613a46576040517f08c379a000000000000000000000000000000000000000000000000000000000815260040180806020018281038252602c815260200180614df8602c913960400191505060405180910390fd5b82828080601f016020809104026020016040519081016040528093929190818152602001838380828437600081840152601f19601f82011690508083019250505050505050806040516020018082805190602001908083835b60208310613ac25780518252602082019150602081019050602083039250613a9f565b6001836020036101000a03801982511681845116808217855250505050505090500191505060405160208183030381529060405280519060200120600760006008846040518082805190602001908083835b60208310613b375780518252602082019150602081019050602083039250613b14565b6001836020036101000a03801982511681845116808217855250505050505090500191505090815260200160405180910390205481526020019081526020016000206004016040516020018082805460018160011615610100020316600290048015613bda5780601f10613bb8576101008083540402835291820191613bda565b820191906000526020600020905b815481529060010190602001808311613bc6575b50509150506040516020818303038152906040528051906020012014613c68576040517f08c379a000000000000000000000000000000000000000000000000000000000815260040180806020018281038252600f8152602001807f656d61696c206e6f7420666f756e64000000000000000000000000000000000081525060200191505060405180910390fd5b60016007600060088787604051808383808284378083019250505092505050908152602001604051809103902054815260200190815260200160002060030160036101000a81548160ff0219169083151502179055613cc657600080fd5b816007600060088787604051808383808284378083019250505092505050908152602001604051809103902054815260200190815260200160002060030160006101000a81548160ff02191690836004811115613d1f57fe5b02179055507fec3f9e7c0ec802aac2f07f51ca8ed3fe3e71832bb9b25fa02699f1e133558b288484846040518080602001836004811115613d5c57fe5b60ff1681526020018281038252858582818152602001925080828437600081840152601f19601f82011690508083019250505094505050505060405180910390a150505050565b613dab611f41565b613e1d576040517f08c379a00000000000000000000000000000000000000000000000000000000081526004018080602001828103825260028152602001807f6c6c00000000000000000000000000000000000000000000000000000000000081525060200191505060405180910390fd5b613e263361448f565b613e2f816147c7565b613e3881614ac2565b50565b60011515600560003373ffffffffffffffffffffffffffffffffffffffff1673ffffffffffffffffffffffffffffffffffffffff16815260200190815260200160002060000160009054906101000a900460ff16151514613ee7576040517f08c379a000000000000000000000000000000000000000000000000000000000815260040180806020018281038252602c815260200180614df8602c913960400191505060405180910390fd5b83838080601f016020809104026020016040519081016040528093929190818152602001838380828437600081840152601f19601f82011690508083019250505050505050806040516020018082805190602001908083835b60208310613f635780518252602082019150602081019050602083039250613f40565b6001836020036101000a03801982511681845116808217855250505050505090500191505060405160208183030381529060405280519060200120600760006008846040518082805190602001908083835b60208310613fd85780518252602082019150602081019050602083039250613fb5565b6001836020036101000a0380198251168184511680821785525050505050509050019150509081526020016040518091039020548152602001908152602001600020600401604051602001808280546001816001161561010002031660029004801561407b5780601f1061405957610100808354040283529182019161407b565b820191906000526020600020905b815481529060010190602001808311614067575b50509150506040516020818303038152906040528051906020012014614109576040517f08c379a000000000000000000000000000000000000000000000000000000000815260040180806020018281038252600f8152602001807f656d61696c206e6f7420666f756e64000000000000000000000000000000000081525060200191505060405180910390fd5b60016007600060088888604051808383808284378083019250505092505050908152602001604051809103902054815260200190815260200160002060030160036101000a81548160ff021916908315150217905561416757600080fd5b60006141b684848080601f016020809104026020016040519081016040528093929190818152602001838380828437600081840152601f19601f82011690508083019250505050505050614a74565b90508060076000600889896040518083838082843780830192505050925050509081526020016040518091039020548152602001908152602001600020600201819055507f6c18c2323a2fff052ced450b832c70b902d963e748e582c37e9c78627259731586868360405180806020018381526020018281038252858582818152602001925080828437600081840152601f19601f82011690508083019250505094505050505060405180910390a1505050505050565b60008060011515831515141561428657600090506142f2565b6000151583151514156142f1576142bd60018560030160019054906101000a900461ffff1661ffff16614b4890919063ffffffff16565b8460030160016101000a81548161ffff021916908361ffff1602179055508360030160019054906101000a900461ffff1690505b5b8091505092915050565b60608060206040519080825280601f01601f1916602001820160405280156143335781602001600182028038833980820191505090505b509050600080905060008090505b60208110156143dd5760008160080260020a8660001c0260001b9050600060f81b817effffffffffffffffffffffffffffffffffffffffffffffffffffffffffffff1916146143cf578084848151811061439757fe5b60200101907effffffffffffffffffffffffffffffffffffffffffffffffffffffffffffff1916908160001a90535082806001019350505b508080600101915050614341565b506060816040519080825280601f01601f1916602001820160405280156144135781602001600182028038833980820191505090505b50905060008090505b828110156144835783818151811061443057fe5b602001015160f81c60f81b82828151811061444757fe5b60200101907effffffffffffffffffffffffffffffffffffffffffffffffffffffffffffff1916908160001a905350808060010191505061441c565b50809350505050919050565b60016002541415614508576040517f08c379a00000000000000000000000000000000000000000000000000000000081526004018080602001828103825260158152602001807f61646d696e206d7573742062652070726573656e74000000000000000000000081525060200191505060405180910390fd5b6001600560008373ffffffffffffffffffffffffffffffffffffffff1673ffffffffffffffffffffffffffffffffffffffff16815260200190815260200160002060000160006101000a81548160ff0219169083151502179055156147c4576000600560008373ffffffffffffffffffffffffffffffffffffffff1673ffffffffffffffffffffffffffffffffffffffff168152602001908152602001600020600101549050600060066000600160025403815260200190815260200160002060009054906101000a900473ffffffffffffffffffffffffffffffffffffffff16905060066000600160025403815260200190815260200160002060009054906101000a900473ffffffffffffffffffffffffffffffffffffffff166006600084815260200190815260200160002060006101000a81548173ffffffffffffffffffffffffffffffffffffffff021916908373ffffffffffffffffffffffffffffffffffffffff16021790555081600560008373ffffffffffffffffffffffffffffffffffffffff1673ffffffffffffffffffffffffffffffffffffffff16815260200190815260200160002060010181905550600560008473ffffffffffffffffffffffffffffffffffffffff1673ffffffffffffffffffffffffffffffffffffffff168152602001908152602001600020600080820160006101000a81549060ff02191690556001820160009055505060066000600160025403815260200190815260200160002060006101000a81549073ffffffffffffffffffffffffffffffffffffffff021916905561476b6001600254614b6c90919063ffffffff16565b6002819055508273ffffffffffffffffffffffffffffffffffffffff167fa0726c73cf6ad18ddb855ba65d1ddd4d7fd37d320f4e52f6b154c13d386f5fd96002546040518082815260200191505060405180910390a250505b50565b60001515600560008373ffffffffffffffffffffffffffffffffffffffff1673ffffffffffffffffffffffffffffffffffffffff16815260200190815260200160002060000160009054906101000a900460ff1615151415614938576001600560008373ffffffffffffffffffffffffffffffffffffffff1673ffffffffffffffffffffffffffffffffffffffff16815260200190815260200160002060000160006101000a81548160ff021916908315150217905550600254600560008373ffffffffffffffffffffffffffffffffffffffff1673ffffffffffffffffffffffffffffffffffffffff168152602001908152602001600020600101819055508060066000600254815260200190815260200160002060006101000a81548173ffffffffffffffffffffffffffffffffffffffff021916908373ffffffffffffffffffffffffffffffffffffffff1602179055506149316001600254614aa690919063ffffffff16565b6002819055505b50565b614943611f41565b6149b5576040517f08c379a00000000000000000000000000000000000000000000000000000000081526004018080602001828103825260028152602001807f6c6c00000000000000000000000000000000000000000000000000000000000081525060200191505060405180910390fd5b600073ffffffffffffffffffffffffffffffffffffffff166000809054906101000a900473ffffffffffffffffffffffffffffffffffffffff1673ffffffffffffffffffffffffffffffffffffffff167f8be0079c531659141344cd1fd0a4f28419497f9722a3daafe3b4186f6b6457e060405160405180910390a360008060006101000a81548173ffffffffffffffffffffffffffffffffffffffff021916908373ffffffffffffffffffffffffffffffffffffffff160217905550565b600060608290506060839050600082511415614a97576000801b92505050614aa1565b6020810151925050505b919050565b600080828401905083811015614ab857fe5b8091505092915050565b614aca611f41565b614b3c576040517f08c379a00000000000000000000000000000000000000000000000000000000081526004018080602001828103825260028152602001807f6c6c00000000000000000000000000000000000000000000000000000000000081525060200191505060405180910390fd5b614b4581614b83565b50565b60008082840190508361ffff168161ffff161015614b6257fe5b8091505092915050565b600082821115614b7857fe5b818303905092915050565b600073ffffffffffffffffffffffffffffffffffffffff168173ffffffffffffffffffffffffffffffffffffffff161415614bbd57600080fd5b8073ffffffffffffffffffffffffffffffffffffffff166000809054906101000a900473ffffffffffffffffffffffffffffffffffffffff1673ffffffffffffffffffffffffffffffffffffffff167f8be0079c531659141344cd1fd0a4f28419497f9722a3daafe3b4186f6b6457e060405160405180910390a3806000806101000a81548173ffffffffffffffffffffffffffffffffffffffff021916908373ffffffffffffffffffffffffffffffffffffffff16021790555050565b828054600181600116156101000203166002900490600052602060002090601f016020900481019282601f10614cbc57805160ff1916838001178555614cea565b82800160010185558215614cea579182015b82811115614ce9578251825591602001919060010190614cce565b5b509050614cf79190614dd2565b5090565b6040518060e0016040528060008019168152602001600080191681526020016000801916815260200160006004811115614d3157fe5b8152602001600061ffff168152602001600015158152602001606081525090565b828054600181600116156101000203166002900490600052602060002090601f016020900481019282601f10614d9357803560ff1916838001178555614dc1565b82800160010185558215614dc1579182015b82811115614dc0578235825591602001919060010190614da5565b5b509050614dce9190614dd2565b5090565b614df491905b80821115614df0576000816000905550600101614dd8565b5090565b9056fe4f6e6c792061646d696e7320697320616c6c6f77656420746f2063616c6c20746869732066756e6374696f6ea265627a7a72315820f0b2c9be251c36a9a3f67c05111fad974d841e62e77bac9ca75639e31b21a40164736f6c634300050c0032",
  "source": "pragma solidity >=0.4.22 <0.6.0;\nimport \"./Ownable.sol\";\nimport \"./SafeMath.sol\";\ncontract Cert is Ownable {\n    \n    using SafeMath for uint256;\n    using SafeMath16 for uint16;\n    \n    //EVENTS\n    \n    //Admin Related Events\n    \n    event AdminAdded(address indexed _addr, uint adminIndex);\n    event AdminRemoved(address indexed _addr, uint adminIndex);\n    event AdminLimitChanged(uint _newLimit);\n    \n    //Student Related Events\n    \n    event StudentAdded(string _email, bytes32 fName, bytes32 lName, bytes32 commd, grades _grade);\n    event StudentRemoved(string _email);\n    event StudentNameUpdated(string _email, bytes32 nFirstName, bytes32 nLastName);\n    event StudentCommendationUpdated(string _email, bytes32 nCommendation);\n    event StudentGradeUpdated(string  _email, grades _newgrade);\n    event StudentEmailUpdated(string _email, string _newEmail);\n    \n    //Assignment Related Events\n    \n    event AssignmentAdded(string _email, string _link, assignmentStatus _status, uint16 assignmentIndex);\n    event AssignmentUpdated(string _email, assignmentStatus _status, uint16 assignmentIndex);\n    event Donate(address _addr, uint _value);\n    event Donatee(address _addr, uint _value);\n    \n    //STATE VARIABLES\n    \n    //Initialising VARIABLES\n    \n    uint public maxAdmins = 0;\n    uint public adminIndex = 0;\n    uint public studentIndex = 0;\n    uint public totalDonations = 0;\n    \n    // ENUMS\n    \n    // ENUMS FOR THE STUDENT GRADE\n    \n    enum  grades {Good, Great, Outstanding, Epic, Legendary}\n    \n    // ENUMS FOR THE ASSIGNMENT STATUS\n     \n    enum assignmentStatus {Inactive, Pending, Completed, Cancelled}\n    \n    \n    // STRUCTS\n    \n    // STRUCT FOR ADMINS\n    \n    struct Admin {\n         bool authorized;\n         uint id;\n    }\n     \n    // STRUCT FOR ASSIGNMENT\n    \n    struct Assignment {\n         string link;\n         assignmentStatus status;\n    }\n    \n    // STRUCT FOR STUDENT\n     \n    struct Student {\n         bytes32 firstName;\n         bytes32 lastName;\n         bytes32 commendation;\n         grades grade;\n         uint16 assignmentIndex;\n         bool active;\n         string email;\n        mapping (uint16 => Assignment) assignments;\n    }\n    \n    // MAPPINGS\n    \n    mapping (address => Admin) public admins;\n    mapping (uint => address) public adminsReverseMapping;\n    mapping (uint => Student) private students;\n    mapping (string => uint) private studentsReverseMapping;\n    \n    constructor () public {\n       maxAdmins = 2;\n       _addAdmin(msg.sender);\n        \n    }\n    \n    // MODIFIERS\n    \n    modifier onlyAdmins() {\n         require(admins[msg.sender].authorized == true, 'Only admins is allowed to call this function');\n         _;\n    }\n    \n    modifier onlyNonOwnerAdmins(address _addr) { \n        require(admins[_addr].authorized = true, \"Only admins allowed\");\n        require(_addr != owner(), \"Only non-owner admin\");\n        _;\n    }\n     \n    \n    modifier onlyPermissibleAdminLimit() {\n        require(adminIndex < maxAdmins, 'admins max reached');\n        _;\n    }\n    \n    modifier onlyNonExistentStudents(string memory _email) {\n         //require(!students[studentsReverseMapping[_email]].active, \"Student already Exists\");\n      require(keccak256(abi.encodePacked(students[studentsReverseMapping[_email]].email)) != keccak256(abi.encodePacked( _email)), 'email already exist');\n        _;\n    }\n    \n    modifier onlyValidStudents(string memory _email) {\n         //require(students[studentsReverseMapping[_email]].active, \"Student doesn't exists\");\n      require( keccak256(abi.encodePacked(students[studentsReverseMapping[_email]].email)) == keccak256(abi.encodePacked( _email)), 'email not found');\n        _;\n    }\n    \n   // FUNCTIONS\n   \n   // ADMIN RELATED FUNCTIONS\n    \n    function addAdmin(address _addr) external onlyOwner onlyPermissibleAdminLimit() {\n         _addAdmin(_addr);\n        emit AdminAdded( _addr, adminIndex);\n    }\n    function _addAdmin(address _addr) private {\n       if(admins[_addr].authorized == false) {\n        admins[_addr].authorized = true;    \n        admins[_addr].id = adminIndex;\n        adminsReverseMapping[adminIndex] = _addr;\n        adminIndex = adminIndex.add(1);\n      }\n    }\n    \n    function removeAdmin(address _addr) external onlyOwner onlyNonOwnerAdmins( _addr) {\n        _removeAdmin(_addr);\n        emit AdminRemoved(_addr, adminIndex);\n    }\n    \n    function _removeAdmin(address _addr) private  {\n        // Function will run even if the admin is not authorized, so a fake addres will also result in decreasing adminIndex\n        // run it inside the autorize conditional logic\n        // also, the function will run well for 2 admins but will be incorrect when the number increses\n        // since the last adminIndex is getting swapped with the second last admin index\n        // revisit this\n        \n        // Suggestable Logic :\n        \n        \n        if (adminIndex == 1) {\n            revert('admin must be present');\n        }\n        \n        if (admins[_addr].authorized = true) {\n            // get id of the admin to be deleted\n            uint swappableId = admins[_addr].id;\n            \n            // swap the admins info and update admins mapping\n            // get the last adminsReverseMapping address for swapping\n            address swappableAddress = adminsReverseMapping[adminIndex -1];\n            \n            // swap the adminsReverseMapping and then reduce admin index\n            adminsReverseMapping[swappableId] = adminsReverseMapping[adminIndex - 1];\n            \n            // also remap the admins id\n            admins[swappableAddress].id = swappableId;\n            \n            // delete and reduce admin index \n            delete(admins[_addr]);\n            delete(adminsReverseMapping[adminIndex - 1]);\n            adminIndex = adminIndex.sub(1);\n            \n            // Emit event\n            emit AdminRemoved(_addr, adminIndex);\n        }\n    }\n   \n    function changeAdminLimit (uint _newLimit) external  {\n        require(_newLimit >= 1 && _newLimit > adminIndex);\n        maxAdmins = _newLimit;\n        emit AdminLimitChanged( _newLimit);\n    }\n   \n    function transferOwnership (address _addr) onlyOwner public {\n        _removeAdmin(msg.sender);\n        _addAdmin(_addr);\n        super.transferOwnership(_addr);\n    }\n    \n    function renounceOwnership() public {\n        _removeAdmin(msg.sender);\n        super.renounceOwnership();\n    }\n    \n    // STUDENT RELATED FUNCTIONS\n    \n    function addStudent(string calldata _firstName, string calldata _lastName, string calldata _commendation, grades _grade, string calldata _email) external onlyAdmins onlyNonExistentStudents(_email)  {\n        bytes32 fName = stringToBytes32(_firstName);\n        bytes32 lName = stringToBytes32(_lastName);\n        bytes32 commd = stringToBytes32(_commendation);\n        \n        Student memory stud;\n        stud.assignmentIndex = 0;\n        stud.firstName = fName;\n        stud.lastName = lName;\n        stud.commendation = commd;\n        stud.grade = _grade;\n        stud.email = _email;\n        stud.active = true;\n        students[studentIndex] = stud;\n        \n        studentsReverseMapping[_email] = studentIndex;\n        studentIndex = studentIndex.add(1);\n        \n        emit StudentAdded(_email,fName, lName, commd, _grade);\n    }\n    \n    function searchStudent(string calldata _email) external view returns(string memory firstName, string memory lastName, string memory commendation, grades grade, uint16 assignmentIndex, bool active) {\n        return(\n            bytes32ToString(students[studentsReverseMapping[_email]].firstName),bytes32ToString(students[studentsReverseMapping[_email]].lastName),\n            bytes32ToString(students[studentsReverseMapping[_email]].commendation),students[studentsReverseMapping[_email]].grade,\n            students[studentsReverseMapping[_email]].assignmentIndex, students[studentsReverseMapping[_email]].active\n            );\n    }\n    \n    function removeStudent(string calldata _email) external  onlyAdmins onlyValidStudents(_email)  {\n      students[studentsReverseMapping[_email]].active = false;\n      emit StudentRemoved(_email);\n    }\n    \n    function changeStudentName(string calldata _email, string calldata _newFirstName, string calldata _newLastName) external onlyAdmins onlyValidStudents(_email) {\n       require(students[studentsReverseMapping[_email]].active = true);\n        bytes32 nFirstName = stringToBytes32(_newFirstName);\n        bytes32 nLastName = stringToBytes32(_newLastName);\n        \n        students[studentsReverseMapping[_email]].firstName = nFirstName;\n        students[studentsReverseMapping[_email]].lastName = nLastName;\n        \n       emit StudentNameUpdated(_email, nFirstName, nLastName);\n    }\n    \n    function changeStudentCommendation(string calldata _email, string calldata _newCommendation) external onlyAdmins onlyValidStudents(_email) {\n      require(students[studentsReverseMapping[_email]].active = true);\n       bytes32 nCommendation = stringToBytes32(_newCommendation);\n       \n       students[studentsReverseMapping[_email]].commendation = nCommendation;\n       emit StudentCommendationUpdated(_email, nCommendation);\n    }\n    \n    function changeStudentGrade(string calldata _email, grades _newgrade) external onlyAdmins onlyValidStudents(_email) {\n        require(students[studentsReverseMapping[_email]].active = true);\n        students[studentsReverseMapping[_email]].grade = _newgrade;\n        emit StudentGradeUpdated( _email, _newgrade);\n    }\n    \n    function changeStudentEmail(string calldata _email, string calldata _newEmail) external onlyAdmins onlyValidStudents(_email) {\n        require(students[studentsReverseMapping[_email]].active = true);\n        students[studentsReverseMapping[_email]].email = _newEmail;\n        emit StudentEmailUpdated(_email, _newEmail);\n    } \n    \n    // ASSIGNMENT RELATED FUNCTIONS\n    \n    // TO CHECK WHETHER IS FINAL PROJECT OR NOT\n    \n    function _calcAndFetchAssignmentIndex(Student storage scholar, bool isFinalProject) private  returns(uint16) {\n       uint16 assignmentIndex;\n        \n        if(isFinalProject == true) {\n          assignmentIndex = 0; \n        }\n        else if (isFinalProject == false) {\n          scholar.assignmentIndex = scholar.assignmentIndex.add(1);\n          assignmentIndex = scholar.assignmentIndex;\n        }\n        \n         \n        return assignmentIndex;\n    }\n    \n    function addAssignment(string calldata _email, string calldata _link, assignmentStatus _status, bool isFinalProject) external onlyAdmins onlyValidStudents(_email) {\n        require(students[studentsReverseMapping[_email]].active = true);\n        uint16 assignmentIndex = _calcAndFetchAssignmentIndex(students[studentsReverseMapping[_email]], isFinalProject);\n        students[studentsReverseMapping[_email]].assignments[students[studentsReverseMapping[_email]].assignmentIndex] = Assignment(_link, _status);\n        \n        emit AssignmentAdded(_email, _link, _status, assignmentIndex);\n    }\n    \n    function updateAssignmentStatus(string calldata _email, assignmentStatus _status, bool isFinalProject) external onlyAdmins onlyValidStudents(_email) {\n      require(students[studentsReverseMapping[_email]].active = true);\n      uint16 assignmentIndex = _calcAndFetchAssignmentIndex(students[studentsReverseMapping[_email]], isFinalProject);\n       students[studentsReverseMapping[_email]].assignments[students[studentsReverseMapping[_email]].assignmentIndex].status = _status;\n          \n        emit AssignmentUpdated(_email, _status, assignmentIndex);\n    }\n    \n    function getAssignmentInfo(string calldata _email, uint16 _assignmentIndex) view external onlyValidStudents(_email) returns(string memory link, assignmentStatus status ) {\n        require(students[studentsReverseMapping[_email]].assignmentIndex >= 0);\n        require(_assignmentIndex <= students[studentsReverseMapping[_email]].assignmentIndex, 'assignmentIndex above current Id');\n        return(students[studentsReverseMapping[_email]].assignments[_assignmentIndex].link, students[studentsReverseMapping[_email]].assignments[_assignmentIndex].status);\n    }\n   \n   //FALLBACK \n   \n    function () external payable {\n    }\n    \n    // DONATE ETHER TO THE CONTRACT\n    \n    function donateEth() external payable {\n      require(msg.value >= 0.005 ether);\n       totalDonations = totalDonations.add(msg.value);\n    emit Donate(address(this), msg.value);\n    }\n    \n    // WITHDRAW ETHER TO OWNER ADDRESS\n    \n    function withdrawEth() external payable onlyOwner {\n      address payable _owner = address(uint160(owner()));\n      uint bal = address(this).balance;\n      _owner.transfer(bal);\n      emit Donatee(msg.sender, bal);\n    }\n    \n    //HELPER FUNCTIONS\n    \n    //CONVERT BYTES32 TO STRING\n    \n      function bytes32ToString(bytes32 _x) \n    private pure \n    returns (string memory result) {\n        bytes memory bytesString = new bytes(32);\n        uint charCount = 0;\n        for (uint j = 0; j < 32; j++) {\n            byte char = byte(bytes32(uint(_x) * 2 ** (8 * j)));\n            if (char != 0) {\n                bytesString[charCount] = char;\n                charCount++;\n            }\n        }\n        bytes memory bytesStringTrimmed = new bytes(charCount);\n        for (uint j = 0; j < charCount; j++) {\n            bytesStringTrimmed[j] = bytesString[j];\n        }\n        \n        result = string(bytesStringTrimmed);\n    }\n    \n    // CONVERT STRING TO BYTES32\n    \n       function stringToBytes32(string memory _source) \n    private pure \n    returns (bytes32 result) {\n        bytes memory tempEmptyStringTest = bytes(_source);\n        string memory tempSource = _source;\n        \n        if (tempEmptyStringTest.length == 0) {\n            return 0x0;\n        }\n    \n        assembly {\n            result := mload(add(tempSource, 32))\n        }\n    }\n\n}\n\n\n\n\n\n\n\n\n\n",
  "sourcePath": "C:/Users/nwagb/Documents/i/contracts/cert.sol",
  "compiler": {
    "name": "solc",
    "version": "0.5.12+commit.7709ece9.Emscripten.clang"
  },
  "schemaVersion": "3.0.19",
  "updatedAt": "2020-03-27T16:03:02.226Z",
  "networkType": "ethereum",
  "devdoc": {
    "methods": {
      "isOwner()": {
        "return": "true if `msg.sender` is the owner of the contract."
      },
      "owner()": {
        "return": "the address of the owner."
      }
    }
  },
  "userdoc": {
    "methods": {}
  }
}